{
  "contractName": "BookingEscrow",
  "abi": [
    {
      "inputs": [
        {
          "internalType": "address",
          "name": "_listingsContractAddress",
          "type": "address"
        }
      ],
      "stateMutability": "nonpayable",
      "type": "constructor"
    },
    {
      "anonymous": false,
      "inputs": [
        {
          "indexed": true,
          "internalType": "uint256",
          "name": "bookingId",
          "type": "uint256"
        },
        {
          "indexed": false,
          "internalType": "uint256",
          "name": "refundAmount",
          "type": "uint256"
        }
      ],
      "name": "BookingCancelled",
      "type": "event"
    },
    {
      "anonymous": false,
      "inputs": [
        {
          "indexed": true,
          "internalType": "uint256",
          "name": "bookingId",
          "type": "uint256"
        },
        {
          "indexed": true,
          "internalType": "uint256",
          "name": "listingId",
          "type": "uint256"
        },
        {
          "indexed": true,
          "internalType": "address",
          "name": "guest",
          "type": "address"
        },
        {
          "indexed": false,
          "internalType": "address",
          "name": "host",
          "type": "address"
        },
        {
          "indexed": false,
          "internalType": "uint256",
          "name": "checkInDate",
          "type": "uint256"
        },
        {
          "indexed": false,
          "internalType": "uint256",
          "name": "checkOutDate",
          "type": "uint256"
        },
        {
          "indexed": false,
          "internalType": "uint256",
          "name": "totalPrice",
          "type": "uint256"
        }
      ],
      "name": "BookingCreated",
      "type": "event"
    },
    {
      "anonymous": false,
      "inputs": [
        {
          "indexed": true,
          "internalType": "uint256",
          "name": "bookingId",
          "type": "uint256"
        },
        {
          "indexed": false,
          "internalType": "uint256",
          "name": "timestamp",
          "type": "uint256"
        }
      ],
      "name": "CheckedIn",
      "type": "event"
    },
    {
      "anonymous": false,
      "inputs": [
        {
          "indexed": true,
          "internalType": "uint256",
          "name": "bookingId",
          "type": "uint256"
        },
        {
          "indexed": false,
          "internalType": "uint256",
          "name": "timestamp",
          "type": "uint256"
        }
      ],
      "name": "CheckedOut",
      "type": "event"
    },
    {
      "anonymous": false,
      "inputs": [
        {
          "indexed": true,
          "internalType": "uint256",
          "name": "bookingId",
          "type": "uint256"
        },
        {
          "indexed": false,
          "internalType": "address",
          "name": "host",
          "type": "address"
        },
        {
          "indexed": false,
          "internalType": "uint256",
          "name": "amount",
          "type": "uint256"
        }
      ],
      "name": "PaymentReleased",
      "type": "event"
    },
    {
      "anonymous": false,
      "inputs": [
        {
          "indexed": false,
          "internalType": "address",
          "name": "admin",
          "type": "address"
        },
        {
          "indexed": false,
          "internalType": "uint256",
          "name": "amount",
          "type": "uint256"
        }
      ],
      "name": "ProtocolFeeWithdrawn",
      "type": "event"
    },
    {
      "inputs": [],
      "name": "FEE_DENOMINATOR",
      "outputs": [
        {
          "internalType": "uint256",
          "name": "",
          "type": "uint256"
        }
      ],
      "stateMutability": "view",
      "type": "function",
      "constant": true
    },
    {
      "inputs": [],
      "name": "admin",
      "outputs": [
        {
          "internalType": "address",
          "name": "",
          "type": "address"
        }
      ],
      "stateMutability": "view",
      "type": "function",
      "constant": true
    },
    {
      "inputs": [],
      "name": "bookingCounter",
      "outputs": [
        {
          "internalType": "uint256",
          "name": "",
          "type": "uint256"
        }
      ],
      "stateMutability": "view",
      "type": "function",
      "constant": true
    },
    {
      "inputs": [
        {
          "internalType": "uint256",
          "name": "",
          "type": "uint256"
        }
      ],
      "name": "bookings",
      "outputs": [
        {
          "internalType": "uint256",
          "name": "id",
          "type": "uint256"
        },
        {
          "internalType": "uint256",
          "name": "listingId",
          "type": "uint256"
        },
        {
          "internalType": "address",
          "name": "guest",
          "type": "address"
        },
        {
          "internalType": "address",
          "name": "host",
          "type": "address"
        },
        {
          "internalType": "uint256",
          "name": "checkInDate",
          "type": "uint256"
        },
        {
          "internalType": "uint256",
          "name": "checkOutDate",
          "type": "uint256"
        },
        {
          "internalType": "uint256",
          "name": "totalPrice",
          "type": "uint256"
        },
        {
          "internalType": "uint256",
          "name": "protocolFee",
          "type": "uint256"
        },
        {
          "internalType": "uint256",
          "name": "hostPayout",
          "type": "uint256"
        },
        {
          "internalType": "enum BookingEscrow.BookingStatus",
          "name": "status",
          "type": "uint8"
        },
        {
          "internalType": "uint256",
          "name": "createdAt",
          "type": "uint256"
        }
      ],
      "stateMutability": "view",
      "type": "function",
      "constant": true
    },
    {
      "inputs": [
        {
          "internalType": "address",
          "name": "",
          "type": "address"
        },
        {
          "internalType": "uint256",
          "name": "",
          "type": "uint256"
        }
      ],
      "name": "guestBookings",
      "outputs": [
        {
          "internalType": "uint256",
          "name": "",
          "type": "uint256"
        }
      ],
      "stateMutability": "view",
      "type": "function",
      "constant": true
    },
    {
      "inputs": [
        {
          "internalType": "address",
          "name": "",
          "type": "address"
        },
        {
          "internalType": "uint256",
          "name": "",
          "type": "uint256"
        }
      ],
      "name": "hostBookings",
      "outputs": [
        {
          "internalType": "uint256",
          "name": "",
          "type": "uint256"
        }
      ],
      "stateMutability": "view",
      "type": "function",
      "constant": true
    },
    {
      "inputs": [
        {
          "internalType": "uint256",
          "name": "",
          "type": "uint256"
        },
        {
          "internalType": "uint256",
          "name": "",
          "type": "uint256"
        }
      ],
      "name": "listingBookings",
      "outputs": [
        {
          "internalType": "uint256",
          "name": "",
          "type": "uint256"
        }
      ],
      "stateMutability": "view",
      "type": "function",
      "constant": true
    },
    {
      "inputs": [],
      "name": "listingsContract",
      "outputs": [
        {
          "internalType": "contract Listings",
          "name": "",
          "type": "address"
        }
      ],
      "stateMutability": "view",
      "type": "function",
      "constant": true
    },
    {
      "inputs": [],
      "name": "protocolFeePercent",
      "outputs": [
        {
          "internalType": "uint256",
          "name": "",
          "type": "uint256"
        }
      ],
      "stateMutability": "view",
      "type": "function",
      "constant": true
    },
    {
      "inputs": [],
      "name": "protocolFeesCollected",
      "outputs": [
        {
          "internalType": "uint256",
          "name": "",
          "type": "uint256"
        }
      ],
      "stateMutability": "view",
      "type": "function",
      "constant": true
    },
    {
      "inputs": [
        {
          "internalType": "uint256",
          "name": "_listingId",
          "type": "uint256"
        },
        {
          "internalType": "uint256",
          "name": "_checkInDate",
          "type": "uint256"
        },
        {
          "internalType": "uint256",
          "name": "_checkOutDate",
          "type": "uint256"
        }
      ],
      "name": "createBooking",
      "outputs": [
        {
          "internalType": "uint256",
          "name": "",
          "type": "uint256"
        }
      ],
      "stateMutability": "payable",
      "type": "function",
      "payable": true
    },
    {
      "inputs": [
        {
          "internalType": "uint256",
          "name": "_bookingId",
          "type": "uint256"
        }
      ],
      "name": "checkIn",
      "outputs": [],
      "stateMutability": "nonpayable",
      "type": "function"
    },
    {
      "inputs": [
        {
          "internalType": "uint256",
          "name": "_bookingId",
          "type": "uint256"
        }
      ],
      "name": "checkOut",
      "outputs": [],
      "stateMutability": "nonpayable",
      "type": "function"
    },
    {
      "inputs": [
        {
          "internalType": "uint256",
          "name": "_bookingId",
          "type": "uint256"
        }
      ],
      "name": "cancelBooking",
      "outputs": [],
      "stateMutability": "nonpayable",
      "type": "function"
    },
    {
      "inputs": [
        {
          "internalType": "uint256",
          "name": "_listingId",
          "type": "uint256"
        },
        {
          "internalType": "uint256",
          "name": "_checkInDate",
          "type": "uint256"
        },
        {
          "internalType": "uint256",
          "name": "_checkOutDate",
          "type": "uint256"
        }
      ],
      "name": "hasOverlappingBooking",
      "outputs": [
        {
          "internalType": "bool",
          "name": "",
          "type": "bool"
        }
      ],
      "stateMutability": "view",
      "type": "function",
      "constant": true
    },
    {
      "inputs": [
        {
          "internalType": "address",
          "name": "_guest",
          "type": "address"
        }
      ],
      "name": "getGuestBookings",
      "outputs": [
        {
          "internalType": "uint256[]",
          "name": "",
          "type": "uint256[]"
        }
      ],
      "stateMutability": "view",
      "type": "function",
      "constant": true
    },
    {
      "inputs": [
        {
          "internalType": "address",
          "name": "_host",
          "type": "address"
        }
      ],
      "name": "getHostBookings",
      "outputs": [
        {
          "internalType": "uint256[]",
          "name": "",
          "type": "uint256[]"
        }
      ],
      "stateMutability": "view",
      "type": "function",
      "constant": true
    },
    {
      "inputs": [
        {
          "internalType": "uint256",
          "name": "_bookingId",
          "type": "uint256"
        }
      ],
      "name": "getBooking",
      "outputs": [
        {
          "internalType": "uint256",
          "name": "id",
          "type": "uint256"
        },
        {
          "internalType": "uint256",
          "name": "listingId",
          "type": "uint256"
        },
        {
          "internalType": "address",
          "name": "guest",
          "type": "address"
        },
        {
          "internalType": "address",
          "name": "host",
          "type": "address"
        },
        {
          "internalType": "uint256",
          "name": "checkInDate",
          "type": "uint256"
        },
        {
          "internalType": "uint256",
          "name": "checkOutDate",
          "type": "uint256"
        },
        {
          "internalType": "uint256",
          "name": "totalPrice",
          "type": "uint256"
        },
        {
          "internalType": "enum BookingEscrow.BookingStatus",
          "name": "status",
          "type": "uint8"
        }
      ],
      "stateMutability": "view",
      "type": "function",
      "constant": true
    },
    {
      "inputs": [],
      "name": "withdrawProtocolFees",
      "outputs": [],
      "stateMutability": "nonpayable",
      "type": "function"
    },
    {
      "inputs": [
        {
          "internalType": "uint256",
          "name": "_newFeePercent",
          "type": "uint256"
        }
      ],
      "name": "setProtocolFee",
      "outputs": [],
      "stateMutability": "nonpayable",
      "type": "function"
    },
    {
      "inputs": [],
      "name": "getContractBalance",
      "outputs": [
        {
          "internalType": "uint256",
          "name": "",
          "type": "uint256"
        }
      ],
      "stateMutability": "view",
      "type": "function",
      "constant": true
    }
  ],
  "bytecode": "0x608060405260fa600155600060045534801561001a57600080fd5b50604051611c9b380380611c9b83398101604081905261003991610067565b600080546001600160a01b039092166001600160a01b03199283161790556002805490911633179055610097565b60006020828403121561007957600080fd5b81516001600160a01b038116811461009057600080fd5b9392505050565b611bf5806100a66000396000f3fe60806040526004361061012a5760003560e01c806377966776116100ab578063d287ac421161006f578063d287ac42146103ba578063d6e6eb9f146103d0578063d73792a9146103e6578063e95a644f146103fc578063f851a4401461041c578063f91f859a1461043c57600080fd5b80637796677614610317578063787dce3d1461034f5780638795cccb1461036f578063a41cfa6914610384578063cc08b834146103a457600080fd5b80633b45b43e116100f25780633b45b43e14610253578063405505b11461028357806363809aef146102b05780636a5c841a146102d05780636f9fb98a1461030457600080fd5b80630c8278d11461012f5780630dca825e146101625780630ddd9c85146101845780631bd2eeee146101975780631dab301e146101b7575b600080fd5b34801561013b57600080fd5b5061014f61014a366004611777565b61045c565b6040519081526020015b60405180910390f35b34801561016e57600080fd5b5061018261017d366004611799565b61048d565b005b61014f6101923660046117b2565b610723565b3480156101a357600080fd5b506101826101b2366004611799565b610cec565b3480156101c357600080fd5b5061023c6101d2366004611799565b600560208190526000918252604090912080546001820154600283015460038401546004850154958501546006860154600787015460088801546009890154600a90990154979996986001600160a01b0396871698959096169695939492939192909160ff16908b565b6040516101599b9a99989796959493929190611816565b34801561025f57600080fd5b5061027361026e3660046117b2565b610f7e565b6040519015158152602001610159565b34801561028f57600080fd5b506102a361029e36600461189d565b611152565b60405161015991906118ba565b3480156102bc57600080fd5b506102a36102cb36600461189d565b6111be565b3480156102dc57600080fd5b506102f06102eb366004611799565b611228565b6040516101599897969594939291906118fe565b34801561031057600080fd5b504761014f565b34801561032357600080fd5b50600054610337906001600160a01b031681565b6040516001600160a01b039091168152602001610159565b34801561035b57600080fd5b5061018261036a366004611799565b61136f565b34801561037b57600080fd5b5061018261141b565b34801561039057600080fd5b5061014f61039f366004611953565b611547565b3480156103b057600080fd5b5061014f60035481565b3480156103c657600080fd5b5061014f60045481565b3480156103dc57600080fd5b5061014f60015481565b3480156103f257600080fd5b5061014f61271081565b34801561040857600080fd5b50610182610417366004611799565b611563565b34801561042857600080fd5b50600254610337906001600160a01b031681565b34801561044857600080fd5b5061014f610457366004611953565b61175b565b6008602052816000526040600020818154811061047857600080fd5b90600052602060002001600091509150505481565b806000811180156104a057506004548111155b6104c55760405162461bcd60e51b81526004016104bc9061197f565b60405180910390fd5b60008281526005602052604090206002015482906001600160a01b031633146105305760405162461bcd60e51b815260206004820152601a60248201527f4f6e6c79207468652067756573742063616e20646f207468697300000000000060448201526064016104bc565b600083815260056020526040812090600982015460ff166004811115610558576105586117de565b146105a55760405162461bcd60e51b815260206004820181905260248201527f43616e206f6e6c792063616e63656c2070656e64696e6720626f6f6b696e677360448201526064016104bc565b806004015442106106095760405162461bcd60e51b815260206004820152602860248201527f546f6f206c61746520746f2063616e63656c2c20636865636b2d696e2064617460448201526719481c185cdcd95960c21b60648201526084016104bc565b60098101805460ff19166003179055600481015460009061062e9062015180906119cc565b421015610640575060068101546106a5565b6002826006015461065191906119e5565b9050600081836006015461066591906119cc565b60038401546040519192506001600160a01b03169082156108fc029083906000818181858888f193505050501580156106a2573d6000803e3d6000fd5b50505b60028201546040516001600160a01b039091169082156108fc029083906000818181858888f193505050501580156106e1573d6000803e3d6000fd5b50847ff3ad9f310a1371c25f06d5a530282a227e94c2cabc99fd4afee3888080ee21fa8260405161071491815260200190565b60405180910390a25050505050565b600042831161079a5760405162461bcd60e51b815260206004820152603860248201527f43616e277420636865636b20696e20746f2074686520706173742c206e65656460448201527f20612074696d65206d616368696e6520666f722074686174000000000000000060648201526084016104bc565b8282116107e95760405162461bcd60e51b815260206004820181905260248201527f436865636b2d6f7574206d75737420626520616674657220636865636b2d696e60448201526064016104bc565b6000805460405163083d13a560e11b815260048101879052829182916001600160a01b039091169063107a274a90602401600060405180830381865afa158015610837573d6000803e3d6000fd5b505050506040513d6000823e601f3d908101601f1916820160405261085f9190810190611ac3565b955095505050935050806108b55760405162461bcd60e51b815260206004820152601a60248201527f54686973206c697374696e67206973206e6f742061637469766500000000000060448201526064016104bc565b336001600160a01b038416036109245760405162461bcd60e51b815260206004820152602e60248201527f596f752063616e277420626f6f6b20796f7572206f776e20706c6163652c207460448201526d6861742773206368656174696e6760901b60648201526084016104bc565b60006201518061093488886119cc565b61093e91906119e5565b9050600081116109905760405162461bcd60e51b815260206004820152601d60248201527f4e65656420746f20626f6f6b206174206c656173742031206e6967687400000060448201526064016104bc565b600061099c8285611b66565b9050803410156109ee5760405162461bcd60e51b815260206004820152601a60248201527f596f75206469646e27742073656e6420656e6f7567682045544800000000000060448201526064016104bc565b600061271060015483610a019190611b66565b610a0b91906119e5565b90506000610a1982846119cc565b9050610a268b8b8b610f7e565b15610a855760405162461bcd60e51b815260206004820152602960248201527f536f7272792c20736f6d656f6e6520616c726561647920626f6f6b656420746860448201526865736520646174657360b81b60648201526084016104bc565b60048054906000610a9583611b7d565b919050555060405180610160016040528060045481526020018c8152602001336001600160a01b03168152602001886001600160a01b031681526020018b81526020018a815260200184815260200183815260200182815260200160006004811115610b0357610b036117de565b81524260209182015260048054600090815260058084526040918290208551815593850151600180860191909155918501516002850180546001600160a01b039283166001600160a01b031991821617909155606087015160038701805491909316911617905560808501518484015560a08501519084015560c0840151600684015560e0840151600784015561010084015160088401556101208401516009840180549193909260ff1990921691908490811115610bc457610bc46117de565b02179055506101409190910151600a909101553360009081526006602090815260408083206004805482546001818101855593875285872001556001600160a01b038c16855260078452828520815481548085018355918752858720909101558f85526008845291842091548254918201835591845291909220015534831015610c8057336108fc610c5685346119cc565b6040518115909202916000818181858888f19350505050158015610c7e573d6000803e3d6000fd5b505b600454604080516001600160a01b038a168152602081018d90529081018b90526060810185905233918d917fc33492c778ba9efb49b9ee569a5cc028951627be34e613ab9834bebc6ad042819060800160405180910390a46004549750505050505050505b9392505050565b80600081118015610cff57506004548111155b610d1b5760405162461bcd60e51b81526004016104bc9061197f565b600082815260056020526040902060028101546001600160a01b0316331480610d50575060038101546001600160a01b031633145b610dac5760405162461bcd60e51b815260206004820152602760248201527f4f6e6c79206775657374206f7220686f73742063616e207472696767657220636044820152661a1958dadbdd5d60ca1b60648201526084016104bc565b6001600982015460ff166004811115610dc757610dc76117de565b1480610deb57506000600982015460ff166004811115610de957610de96117de565b145b610e375760405162461bcd60e51b815260206004820152601d60248201527f43616e277420636865636b6f7574202d2077726f6e672073746174757300000060448201526064016104bc565b8060050154421015610e835760405162461bcd60e51b8152602060048201526015602482015274151bdbc819585c9b1e481d1bc818da1958dadbdd5d605a1b60448201526064016104bc565b60098101805460ff19166002179055600781015460038054600090610ea9908490611b96565b9091555050600381015460088201546040516001600160a01b039092169181156108fc0291906000818181858888f19350505050158015610eee573d6000803e3d6000fd5b50827f195f8aa3c3ded9353a9258a2af6860c5fcf27ae96f9cf4309d208a2030614eba42604051610f2191815260200190565b60405180910390a260038101546008820154604080516001600160a01b039093168352602083019190915284917f21d71db5be59bb9fa133895586b7404307dd33fb93b16db09dc6f1d9d7d231b0910160405180910390a2505050565b600083815260086020908152604080832080548251818502810185019093528083528493830182828015610fd157602002820191906000526020600020905b815481526020019060010190808311610fbd575b5050505050905060005b815181101561114657600060056000848481518110610ffc57610ffc611ba9565b60209081029190910181015182528181019290925260409081016000208151610160810183528154815260018201549381019390935260028101546001600160a01b0390811692840192909252600381015490911660608301526004808201546080840152600582015460a0840152600682015460c0840152600782015460e08401526008820154610100840152600982015461012084019160ff909116908111156110aa576110aa6117de565b60048111156110bb576110bb6117de565b8152600a91909101546020909101529050600081610120015160048111156110e5576110e56117de565b1480611107575060018161012001516004811115611105576111056117de565b145b15611133578060a00151861080156111225750806080015185115b156111335760019350505050610ce5565b508061113e81611b7d565b915050610fdb565b50600095945050505050565b6001600160a01b0381166000908152600760209081526040918290208054835181840281018401909452808452606093928301828280156111b257602002820191906000526020600020905b81548152602001906001019080831161119e575b50505050509050919050565b6001600160a01b0381166000908152600660209081526040918290208054835181840281018401909452808452606093928301828280156111b2576020028201919060005260206000209081548152602001906001019080831161119e5750505050509050919050565b6000806000806000806000808860008111801561124757506004548111155b6112635760405162461bcd60e51b81526004016104bc9061197f565b60008a81526005602081815260408084208151610160810183528154815260018201549381019390935260028101546001600160a01b03908116928401929092526003810154909116606083015260048082015460808401529281015460a0830152600681015460c0830152600781015460e0830152600881015461010083015260098101549192909161012084019160ff90911690811115611308576113086117de565b6004811115611319576113196117de565b8152602001600a820154815250509050806000015181602001518260400151836060015184608001518560a001518660c00151876101200151995099509950995099509950995099505050919395975091939597565b6002546001600160a01b031633146113c45760405162461bcd60e51b81526020600482015260186024820152774f6e6c792061646d696e2063616e2063616c6c207468697360401b60448201526064016104bc565b6103e88111156114165760405162461bcd60e51b815260206004820152601a60248201527f4665652063616e2774206265206d6f7265207468616e2031302500000000000060448201526064016104bc565b600155565b6002546001600160a01b031633146114705760405162461bcd60e51b81526020600482015260186024820152774f6e6c792061646d696e2063616e2063616c6c207468697360401b60448201526064016104bc565b6000600354116114b85760405162461bcd60e51b81526020600482015260136024820152724e6f206665657320746f20776974686472617760681b60448201526064016104bc565b6003805460009182905560025460405191926001600160a01b039091169183156108fc0291849190818181858888f193505050501580156114fd573d6000803e3d6000fd5b50600254604080516001600160a01b039092168252602082018390527f052c2c1904fab85ddafadaeeae6731433f2cba1bcb770a300d25a40d989acf73910160405180910390a150565b6006602052816000526040600020818154811061047857600080fd5b8060008111801561157657506004548111155b6115925760405162461bcd60e51b81526004016104bc9061197f565b60008281526005602052604090206002015482906001600160a01b031633146115fd5760405162461bcd60e51b815260206004820152601a60248201527f4f6e6c79207468652067756573742063616e20646f207468697300000000000060448201526064016104bc565b600083815260056020526040812090600982015460ff166004811115611625576116256117de565b146116725760405162461bcd60e51b815260206004820152601760248201527f426f6f6b696e67206d7573742062652070656e64696e6700000000000000000060448201526064016104bc565b80600401544210156116be5760405162461bcd60e51b81526020600482015260156024820152742a37b79032b0b9363c903a379031b432b1b59034b760591b60448201526064016104bc565b806005015442106117115760405162461bcd60e51b815260206004820152601a60248201527f436865636b2d696e2077696e646f77206861732070617373656400000000000060448201526064016104bc565b60098101805460ff1916600117905560405142815284907face05157c2c2e541f757661832e461481f06aec5918b9ddecb33a8bd4a32da639060200160405180910390a250505050565b6007602052816000526040600020818154811061047857600080fd5b6000806040838503121561178a57600080fd5b50508035926020909101359150565b6000602082840312156117ab57600080fd5b5035919050565b6000806000606084860312156117c757600080fd5b505081359360208301359350604090920135919050565b634e487b7160e01b600052602160045260246000fd5b6005811061181257634e487b7160e01b600052602160045260246000fd5b9052565b8b8152602081018b90526001600160a01b038a81166040830152891660608201526080810188905260a0810187905260c0810186905260e081018590526101008101849052610160810161186e6101208301856117f4565b826101408301529c9b505050505050505050505050565b6001600160a01b038116811461189a57600080fd5b50565b6000602082840312156118af57600080fd5b8135610ce581611885565b6020808252825182820181905260009190848201906040850190845b818110156118f2578351835292840192918401916001016118d6565b50909695505050505050565b888152602081018890526001600160a01b038781166040830152861660608201526080810185905260a0810184905260c08101839052610100810161194660e08301846117f4565b9998505050505050505050565b6000806040838503121561196657600080fd5b823561197181611885565b946020939093013593505050565b6020808252601a908201527f5468697320626f6f6b696e6720646f65736e2774206578697374000000000000604082015260600190565b634e487b7160e01b600052601160045260246000fd5b818103818111156119df576119df6119b6565b92915050565b600082611a0257634e487b7160e01b600052601260045260246000fd5b500490565b634e487b7160e01b600052604160045260246000fd5b600082601f830112611a2e57600080fd5b815167ffffffffffffffff80821115611a4957611a49611a07565b604051601f8301601f19908116603f01168101908282118183101715611a7157611a71611a07565b81604052838152602092508683858801011115611a8d57600080fd5b600091505b83821015611aaf5785820183015181830184015290820190611a92565b600093810190920192909252949350505050565b60008060008060008060c08789031215611adc57600080fd5b865195506020870151611aee81611885565b604088015190955067ffffffffffffffff80821115611b0c57600080fd5b611b188a838b01611a1d565b95506060890151915080821115611b2e57600080fd5b50611b3b89828a01611a1d565b9350506080870151915060a08701518015158114611b5857600080fd5b809150509295509295509295565b80820281158282048414176119df576119df6119b6565b600060018201611b8f57611b8f6119b6565b5060010190565b808201808211156119df576119df6119b6565b634e487b7160e01b600052603260045260246000fdfea26469706673582212207ad03765608fd3c5dba55c1c3df01323734a107df69d42b009f92cbcaefa145f64736f6c63430008130033",
  "immutableReferences": {},
  "source": "// SPDX-License-Identifier: MIT\npragma solidity ^0.8.19;\n\nimport \"./Listings.sol\";\n\n// handles all the booking and payment stuff\n// basically when someone books, money goes here and waits until checkout\ncontract BookingEscrow {\n\n    // need to talk to the Listings contract to check if places exist\n    Listings public listingsContract;\n\n    // platform takes 2.5% like airbnb does (250 = 2.5%, divide by 10000 to get percentage)\n    uint256 public protocolFeePercent = 250;\n    uint256 public constant FEE_DENOMINATOR = 10000;\n\n    // admin who gets the platform fees\n    address public admin;\n\n    // keeps track of how much fees we've collected\n    uint256 public protocolFeesCollected;\n\n    // counter so each booking gets a unique ID\n    uint256 public bookingCounter = 0;\n\n    // booking can be: pending, checked in, done, cancelled, or disputed\n    enum BookingStatus {\n        Pending,\n        CheckedIn,\n        Completed,\n        Cancelled,\n        Disputed\n    }\n\n    // everything we need to know about a booking\n    struct Booking {\n        uint256 id;\n        uint256 listingId;\n        address guest;\n        address host;\n        uint256 checkInDate;\n        uint256 checkOutDate;\n        uint256 totalPrice;\n        uint256 protocolFee;\n        uint256 hostPayout;\n        BookingStatus status;\n        uint256 createdAt;\n    }\n\n    // storage stuff - basically like databases\n    mapping(uint256 => Booking) public bookings;\n    mapping(address => uint256[]) public guestBookings; // all bookings for a guest\n    mapping(address => uint256[]) public hostBookings; // all bookings for a host\n    mapping(uint256 => uint256[]) public listingBookings; // prevents double booking\n\n    // events so the frontend knows what's happening\n    event BookingCreated(\n        uint256 indexed bookingId,\n        uint256 indexed listingId,\n        address indexed guest,\n        address host,\n        uint256 checkInDate,\n        uint256 checkOutDate,\n        uint256 totalPrice\n    );\n\n    event CheckedIn(uint256 indexed bookingId, uint256 timestamp);\n    event CheckedOut(uint256 indexed bookingId, uint256 timestamp);\n    event BookingCancelled(uint256 indexed bookingId, uint256 refundAmount);\n    event PaymentReleased(uint256 indexed bookingId, address host, uint256 amount);\n    event ProtocolFeeWithdrawn(address admin, uint256 amount);\n\n    // modifiers = security checks that run before functions\n    modifier onlyAdmin() {\n        require(msg.sender == admin, \"Only admin can call this\");\n        _;\n    }\n\n    modifier onlyGuest(uint256 _bookingId) {\n        require(bookings[_bookingId].guest == msg.sender, \"Only the guest can do this\");\n        _;\n    }\n\n    modifier onlyHost(uint256 _bookingId) {\n        require(bookings[_bookingId].host == msg.sender, \"Only the host can do this\");\n        _;\n    }\n\n    modifier bookingExists(uint256 _bookingId) {\n        require(_bookingId > 0 && _bookingId <= bookingCounter, \"This booking doesn't exist\");\n        _;\n    }\n\n    // runs once when we deploy the contract\n    constructor(address _listingsContractAddress) {\n        listingsContract = Listings(_listingsContractAddress);\n        admin = msg.sender;\n    }\n\n    // book a listing - guest pays and money sits here til checkout\n    function createBooking(\n        uint256 _listingId,\n        uint256 _checkInDate,\n        uint256 _checkOutDate\n    ) public payable returns (uint256) {\n        require(_checkInDate > block.timestamp, \"Can't check in to the past, need a time machine for that\");\n        require(_checkOutDate > _checkInDate, \"Check-out must be after check-in\");\n\n        // get the listing info\n        (\n            ,\n            address host,\n            ,\n            ,\n            uint256 pricePerNight,\n            bool isActive\n        ) = listingsContract.getListing(_listingId);\n\n        require(isActive, \"This listing is not active\");\n        require(host != msg.sender, \"You can't book your own place, that's cheating\");\n\n        // calculate how many nights\n        uint256 nights = (_checkOutDate - _checkInDate) / 1 days;\n        require(nights > 0, \"Need to book at least 1 night\");\n\n        // calculate total cost\n        uint256 totalPrice = pricePerNight * nights;\n        require(msg.value >= totalPrice, \"You didn't send enough ETH\");\n\n        // take out platform fee, rest goes to host\n        uint256 protocolFee = (totalPrice * protocolFeePercent) / FEE_DENOMINATOR;\n        uint256 hostPayout = totalPrice - protocolFee;\n\n        // make sure dates aren't taken\n        require(\n            !hasOverlappingBooking(_listingId, _checkInDate, _checkOutDate),\n            \"Sorry, someone already booked these dates\"\n        );\n\n        // create the booking\n        bookingCounter++;\n\n        bookings[bookingCounter] = Booking({\n            id: bookingCounter,\n            listingId: _listingId,\n            guest: msg.sender,\n            host: host,\n            checkInDate: _checkInDate,\n            checkOutDate: _checkOutDate,\n            totalPrice: totalPrice,\n            protocolFee: protocolFee,\n            hostPayout: hostPayout,\n            status: BookingStatus.Pending,\n            createdAt: block.timestamp\n        });\n\n        // track the booking\n        guestBookings[msg.sender].push(bookingCounter);\n        hostBookings[host].push(bookingCounter);\n        listingBookings[_listingId].push(bookingCounter);\n\n        // refund extra if they overpaid\n        if (msg.value > totalPrice) {\n            payable(msg.sender).transfer(msg.value - totalPrice);\n        }\n\n        // let frontend know\n        emit BookingCreated(\n            bookingCounter,\n            _listingId,\n            msg.sender,\n            host,\n            _checkInDate,\n            _checkOutDate,\n            totalPrice\n        );\n\n        return bookingCounter;\n    }\n\n    // guest checks in when they arrive\n    function checkIn(uint256 _bookingId)\n        public\n        bookingExists(_bookingId)\n        onlyGuest(_bookingId)\n    {\n        Booking storage booking = bookings[_bookingId];\n\n        require(booking.status == BookingStatus.Pending, \"Booking must be pending\");\n        require(block.timestamp >= booking.checkInDate, \"Too early to check in\");\n        require(block.timestamp < booking.checkOutDate, \"Check-in window has passed\");\n\n        booking.status = BookingStatus.CheckedIn;\n\n        emit CheckedIn(_bookingId, block.timestamp);\n    }\n\n    // checkout - releases payment to host\n    function checkOut(uint256 _bookingId)\n        public\n        bookingExists(_bookingId)\n    {\n        Booking storage booking = bookings[_bookingId];\n\n        require(\n            msg.sender == booking.guest || msg.sender == booking.host,\n            \"Only guest or host can trigger checkout\"\n        );\n        require(\n            booking.status == BookingStatus.CheckedIn || booking.status == BookingStatus.Pending,\n            \"Can't checkout - wrong status\"\n        );\n        require(block.timestamp >= booking.checkOutDate, \"Too early to checkout\");\n\n        booking.status = BookingStatus.Completed;\n\n        // collect platform fee\n        protocolFeesCollected += booking.protocolFee;\n\n        // pay the host\n        payable(booking.host).transfer(booking.hostPayout);\n\n        emit CheckedOut(_bookingId, block.timestamp);\n        emit PaymentReleased(_bookingId, booking.host, booking.hostPayout);\n    }\n\n    // cancel booking - full refund if 24h+ before checkin, 50% if within 24h\n    function cancelBooking(uint256 _bookingId)\n        public\n        bookingExists(_bookingId)\n        onlyGuest(_bookingId)\n    {\n        Booking storage booking = bookings[_bookingId];\n\n        require(booking.status == BookingStatus.Pending, \"Can only cancel pending bookings\");\n        require(block.timestamp < booking.checkInDate, \"Too late to cancel, check-in date passed\");\n\n        booking.status = BookingStatus.Cancelled;\n\n        // Figure out the refund based on when they're cancelling\n        uint256 refundAmount;\n\n        if (block.timestamp < booking.checkInDate - 1 days) {\n            // Cancelled more than 24 hours before check-in: full refund\n            refundAmount = booking.totalPrice;\n        } else {\n            // Cancelled within 24 hours: only get 50% back\n            refundAmount = booking.totalPrice / 2;\n\n            // Give the other 50% to host as compensation for last-minute cancellation\n            uint256 hostCompensation = booking.totalPrice - refundAmount;\n            payable(booking.host).transfer(hostCompensation);\n        }\n\n        // Send refund to guest\n        payable(booking.guest).transfer(refundAmount);\n\n        emit BookingCancelled(_bookingId, refundAmount);\n    }\n\n    /*\n     * Check if a listing is already booked for specific dates\n     * This prevents double-booking\n     *\n     * How it works:\n     * - Look at all bookings for this listing\n     * - Check if any active bookings (pending or checked-in) overlap with the requested dates\n     * - Two date ranges overlap if: new_start < existing_end AND new_end > existing_start\n    */\n    function hasOverlappingBooking(\n        uint256 _listingId,\n        uint256 _checkInDate,\n        uint256 _checkOutDate\n    ) public view returns (bool) {\n        uint256[] memory bookingIds = listingBookings[_listingId];\n\n        for (uint256 i = 0; i < bookingIds.length; i++) {\n            Booking memory booking = bookings[bookingIds[i]];\n\n            // Only check bookings that are still active (ignore cancelled/completed)\n            if (booking.status == BookingStatus.Pending ||\n                booking.status == BookingStatus.CheckedIn) {\n\n                // Check if dates overlap\n                // Example: existing booking is Jan 10-15, new request is Jan 12-17\n                // 12 < 15 AND 17 > 10 = true (overlap!)\n                if (_checkInDate < booking.checkOutDate && _checkOutDate > booking.checkInDate) {\n                    return true; // found an overlap\n                }\n            }\n        }\n\n        return false; // no overlaps found, dates are available\n    }\n\n    /*\n     * Get all bookings for a specific guest\n     * Returns an array of booking IDs\n    */\n    function getGuestBookings(address _guest) public view returns (uint256[] memory) {\n        return guestBookings[_guest];\n    }\n\n    /*\n     * Get all bookings for a specific host\n     * Shows all reservations for all their properties\n    */\n    function getHostBookings(address _host) public view returns (uint256[] memory) {\n        return hostBookings[_host];\n    }\n\n    /*\n     * Get details about a specific booking\n     * View function so it doesn't cost gas (just reading data)\n    */\n    function getBooking(uint256 _bookingId)\n        public\n        view\n        bookingExists(_bookingId)\n        returns (\n            uint256 id,\n            uint256 listingId,\n            address guest,\n            address host,\n            uint256 checkInDate,\n            uint256 checkOutDate,\n            uint256 totalPrice,\n            BookingStatus status\n        )\n    {\n        Booking memory booking = bookings[_bookingId];\n        return (\n            booking.id,\n            booking.listingId,\n            booking.guest,\n            booking.host,\n            booking.checkInDate,\n            booking.checkOutDate,\n            booking.totalPrice,\n            booking.status\n        );\n    }\n\n    /*\n     * Admin withdraws the accumulated protocol fees\n     * This is how the platform makes money\n     * Only admin can call this (security)\n    */\n    function withdrawProtocolFees() public onlyAdmin {\n        require(protocolFeesCollected > 0, \"No fees to withdraw\");\n\n        uint256 amount = protocolFeesCollected;\n        protocolFeesCollected = 0; // reset to zero before transferring (prevents reentrancy)\n\n        payable(admin).transfer(amount);\n\n        emit ProtocolFeeWithdrawn(admin, amount);\n    }\n\n    /*\n     * Admin can adjust the platform fee\n     * Maximum 10% to prevent admin from setting crazy high fees\n    */\n    function setProtocolFee(uint256 _newFeePercent) public onlyAdmin {\n        require(_newFeePercent <= 1000, \"Fee can't be more than 10%\");\n        protocolFeePercent = _newFeePercent;\n    }\n\n    /*\n     * Check how much ETH is held in this contract\n     * Useful for debugging and transparency\n    */\n    function getContractBalance() public view returns (uint256) {\n        return address(this).balance;\n    }\n}\n",
  "sourcePath": "/home/hyemdanu/Desktop/airbnb-dapp/contracts/BookingEscrow.sol",
  "compiler": {
    "name": "solc",
    "version": "0.8.19+commit.7dd6d404.Emscripten.clang"
  },
  "schemaVersion": "3.4.16",
  "updatedAt": "2025-11-28T09:48:30.901Z",
  "networkType": "ethereum",
  "devdoc": {
    "kind": "dev",
    "methods": {},
    "version": 1
  },
  "userdoc": {
    "kind": "user",
    "methods": {},
    "version": 1
  }
}