{
  "contractName": "Listings",
  "abi": [
    {
      "anonymous": false,
      "inputs": [
        {
          "indexed": true,
          "internalType": "uint256",
          "name": "listingId",
          "type": "uint256"
        },
        {
          "indexed": true,
          "internalType": "address",
          "name": "host",
          "type": "address"
        },
        {
          "indexed": false,
          "internalType": "string",
          "name": "name",
          "type": "string"
        },
        {
          "indexed": false,
          "internalType": "uint256",
          "name": "pricePerNight",
          "type": "uint256"
        }
      ],
      "name": "ListingCreated",
      "type": "event"
    },
    {
      "anonymous": false,
      "inputs": [
        {
          "indexed": true,
          "internalType": "uint256",
          "name": "listingId",
          "type": "uint256"
        }
      ],
      "name": "ListingDeactivated",
      "type": "event"
    },
    {
      "anonymous": false,
      "inputs": [
        {
          "indexed": true,
          "internalType": "uint256",
          "name": "listingId",
          "type": "uint256"
        },
        {
          "indexed": false,
          "internalType": "string",
          "name": "name",
          "type": "string"
        },
        {
          "indexed": false,
          "internalType": "uint256",
          "name": "pricePerNight",
          "type": "uint256"
        }
      ],
      "name": "ListingUpdated",
      "type": "event"
    },
    {
      "inputs": [
        {
          "internalType": "address",
          "name": "",
          "type": "address"
        },
        {
          "internalType": "uint256",
          "name": "",
          "type": "uint256"
        }
      ],
      "name": "hostListings",
      "outputs": [
        {
          "internalType": "uint256",
          "name": "",
          "type": "uint256"
        }
      ],
      "stateMutability": "view",
      "type": "function",
      "constant": true
    },
    {
      "inputs": [],
      "name": "listingCounter",
      "outputs": [
        {
          "internalType": "uint256",
          "name": "",
          "type": "uint256"
        }
      ],
      "stateMutability": "view",
      "type": "function",
      "constant": true
    },
    {
      "inputs": [
        {
          "internalType": "uint256",
          "name": "",
          "type": "uint256"
        }
      ],
      "name": "listings",
      "outputs": [
        {
          "internalType": "uint256",
          "name": "id",
          "type": "uint256"
        },
        {
          "internalType": "address",
          "name": "host",
          "type": "address"
        },
        {
          "internalType": "string",
          "name": "name",
          "type": "string"
        },
        {
          "internalType": "string",
          "name": "location",
          "type": "string"
        },
        {
          "internalType": "uint256",
          "name": "pricePerNight",
          "type": "uint256"
        },
        {
          "internalType": "bool",
          "name": "isActive",
          "type": "bool"
        }
      ],
      "stateMutability": "view",
      "type": "function",
      "constant": true
    },
    {
      "inputs": [
        {
          "internalType": "string",
          "name": "_name",
          "type": "string"
        },
        {
          "internalType": "string",
          "name": "_location",
          "type": "string"
        },
        {
          "internalType": "uint256",
          "name": "_pricePerNight",
          "type": "uint256"
        }
      ],
      "name": "createListing",
      "outputs": [
        {
          "internalType": "uint256",
          "name": "",
          "type": "uint256"
        }
      ],
      "stateMutability": "nonpayable",
      "type": "function"
    },
    {
      "inputs": [
        {
          "internalType": "uint256",
          "name": "_listingId",
          "type": "uint256"
        },
        {
          "internalType": "string",
          "name": "_name",
          "type": "string"
        },
        {
          "internalType": "string",
          "name": "_location",
          "type": "string"
        },
        {
          "internalType": "uint256",
          "name": "_pricePerNight",
          "type": "uint256"
        }
      ],
      "name": "updateListing",
      "outputs": [],
      "stateMutability": "nonpayable",
      "type": "function"
    },
    {
      "inputs": [
        {
          "internalType": "uint256",
          "name": "_listingId",
          "type": "uint256"
        }
      ],
      "name": "deactivateListing",
      "outputs": [],
      "stateMutability": "nonpayable",
      "type": "function"
    },
    {
      "inputs": [
        {
          "internalType": "uint256",
          "name": "_listingId",
          "type": "uint256"
        }
      ],
      "name": "getListing",
      "outputs": [
        {
          "internalType": "uint256",
          "name": "id",
          "type": "uint256"
        },
        {
          "internalType": "address",
          "name": "host",
          "type": "address"
        },
        {
          "internalType": "string",
          "name": "name",
          "type": "string"
        },
        {
          "internalType": "string",
          "name": "location",
          "type": "string"
        },
        {
          "internalType": "uint256",
          "name": "pricePerNight",
          "type": "uint256"
        },
        {
          "internalType": "bool",
          "name": "isActive",
          "type": "bool"
        }
      ],
      "stateMutability": "view",
      "type": "function",
      "constant": true
    },
    {
      "inputs": [
        {
          "internalType": "address",
          "name": "_host",
          "type": "address"
        }
      ],
      "name": "getHostListings",
      "outputs": [
        {
          "internalType": "uint256[]",
          "name": "",
          "type": "uint256[]"
        }
      ],
      "stateMutability": "view",
      "type": "function",
      "constant": true
    },
    {
      "inputs": [
        {
          "internalType": "uint256",
          "name": "_listingId",
          "type": "uint256"
        }
      ],
      "name": "isListingActive",
      "outputs": [
        {
          "internalType": "bool",
          "name": "",
          "type": "bool"
        }
      ],
      "stateMutability": "view",
      "type": "function",
      "constant": true
    }
  ],
  "bytecode": "0x60806040526000805534801561001457600080fd5b50610fca806100246000396000f3fe608060405234801561001057600080fd5b50600436106100935760003560e01c80635c0af71f116100665780635c0af71f1461010f5780636c2c9c7d1461012257806378e30c911461012b578063a472d29914610161578063de74e57b1461018157600080fd5b8063107a274a146100985780633b8d915f146100c65780634652c3e2146100db57806346deb955146100fc575b600080fd5b6100ab6100a6366004610ae4565b610194565b6040516100bd96959493929190610b43565b60405180910390f35b6100d96100d4366004610ae4565b61037b565b005b6100ee6100e9366004610c3d565b6104bc565b6040519081526020016100bd565b6100ee61010a366004610cc6565b6106dd565b6100d961011d366004610cf0565b61070e565b6100ee60005481565b610151610139366004610ae4565b60009081526001602052604090206005015460ff1690565b60405190151581526020016100bd565b61017461016f366004610d65565b610924565b6040516100bd9190610d87565b6100ab61018f366004610ae4565b610990565b600080606080600080866000811180156101b057506000548111155b6101d55760405162461bcd60e51b81526004016101cc90610dcb565b60405180910390fd5b6000888152600160208181526040808420815160c08101835281548152938101546001600160a01b0316928401929092526002820180549184019161021990610e02565b80601f016020809104026020016040519081016040528092919081815260200182805461024590610e02565b80156102925780601f1061026757610100808354040283529160200191610292565b820191906000526020600020905b81548152906001019060200180831161027557829003601f168201915b505050505081526020016003820180546102ab90610e02565b80601f01602080910402602001604051908101604052809291908181526020018280546102d790610e02565b80156103245780601f106102f957610100808354040283529160200191610324565b820191906000526020600020905b81548152906001019060200180831161030757829003601f168201915b5050509183525050600482015460208083019190915260059092015460ff161515604091820152825191830151908301516060840151608085015160a090950151939e929d50909b50995091975095509350505050565b8060008111801561038e57506000548111155b6103aa5760405162461bcd60e51b81526004016101cc90610dcb565b6000828152600160208190526040909120015482906001600160a01b031633146104165760405162461bcd60e51b815260206004820152601f60248201527f596f7520617265206e6f7420686f7374206f6620746865206c697374696e670060448201526064016101cc565b60008381526001602052604090206005015460ff166104775760405162461bcd60e51b815260206004820152601e60248201527f4c697374696e6720697320616c7265616479206465616374697661746564000060448201526064016101cc565b600083815260016020526040808220600501805460ff191690555184917fe8a884965a7fb1b7c1efd55ff478bcbd880c4b226a2e2218b83d31c493964ab391a2505050565b6000808451116105055760405162461bcd60e51b81526020600482015260146024820152734c697374696e67206e656564732061206e616d6560601b60448201526064016101cc565b60008351116105565760405162461bcd60e51b815260206004820152601860248201527f4c697374696e67206e656564732061206c6f636174696f6e000000000000000060448201526064016101cc565b600082116105a65760405162461bcd60e51b815260206004820152601c60248201527f5072696365206d7573742062652067726561746572207468616e20300000000060448201526064016101cc565b6000805490806105b583610e3c565b90915550506040805160c081018252600080548083523360208085019182528486018a8152606086018a905260808601899052600160a08701819052938552908390529490922083518155915190820180546001600160a01b0319166001600160a01b03909216919091179055915190919060028201906106369082610eb2565b506060820151600382019061064b9082610eb2565b506080820151600482015560a0909101516005909101805460ff1916911515919091179055336000818152600260209081526040808320835481546001810183559185529284200191909155905490517f6b7a3194eaddce2be5200d10785a15a5cd14a78b827cf902f4d23c35e6bd73f8906106ca9088908790610f72565b60405180910390a3506000549392505050565b600260205281600052604060002081815481106106f957600080fd5b90600052602060002001600091509150505481565b8360008111801561072157506000548111155b61073d5760405162461bcd60e51b81526004016101cc90610dcb565b6000858152600160208190526040909120015485906001600160a01b031633146107a95760405162461bcd60e51b815260206004820152601f60248201527f596f7520617265206e6f7420686f7374206f6620746865206c697374696e670060448201526064016101cc565b60008681526001602052604090206005015460ff166108155760405162461bcd60e51b815260206004820152602260248201527f43616e2774207570646174652061206465616374697661746564206c697374696044820152616e6760f01b60648201526084016101cc565b600085511161085c5760405162461bcd60e51b81526020600482015260136024820152724e616d652063616e277420626520656d70747960681b60448201526064016101cc565b600083116108ac5760405162461bcd60e51b815260206004820152601c60248201527f5072696365206d7573742062652067726561746572207468616e20300000000060448201526064016101cc565b6000868152600160205260409020600281016108c88782610eb2565b50600381016108d78682610eb2565b50838160040181905550867f642c774179bca904e6ef2ae903708e679f33680fe41aa6893b3b36dee65162298786604051610913929190610f72565b60405180910390a250505050505050565b6001600160a01b03811660009081526002602090815260409182902080548351818402810184019094528084526060939283018282801561098457602002820191906000526020600020905b815481526020019060010190808311610970575b50505050509050919050565b60016020819052600091825260409091208054918101546002820180546001600160a01b0390921692916109c390610e02565b80601f01602080910402602001604051908101604052809291908181526020018280546109ef90610e02565b8015610a3c5780601f10610a1157610100808354040283529160200191610a3c565b820191906000526020600020905b815481529060010190602001808311610a1f57829003601f168201915b505050505090806003018054610a5190610e02565b80601f0160208091040260200160405190810160405280929190818152602001828054610a7d90610e02565b8015610aca5780601f10610a9f57610100808354040283529160200191610aca565b820191906000526020600020905b815481529060010190602001808311610aad57829003601f168201915b50505050600483015460059093015491929160ff16905086565b600060208284031215610af657600080fd5b5035919050565b6000815180845260005b81811015610b2357602081850181015186830182015201610b07565b506000602082860101526020601f19601f83011685010191505092915050565b8681526001600160a01b038616602082015260c060408201819052600090610b6d90830187610afd565b8281036060840152610b7f8187610afd565b6080840195909552505090151560a090910152949350505050565b634e487b7160e01b600052604160045260246000fd5b600082601f830112610bc157600080fd5b813567ffffffffffffffff80821115610bdc57610bdc610b9a565b604051601f8301601f19908116603f01168101908282118183101715610c0457610c04610b9a565b81604052838152866020858801011115610c1d57600080fd5b836020870160208301376000602085830101528094505050505092915050565b600080600060608486031215610c5257600080fd5b833567ffffffffffffffff80821115610c6a57600080fd5b610c7687838801610bb0565b94506020860135915080821115610c8c57600080fd5b50610c9986828701610bb0565b925050604084013590509250925092565b80356001600160a01b0381168114610cc157600080fd5b919050565b60008060408385031215610cd957600080fd5b610ce283610caa565b946020939093013593505050565b60008060008060808587031215610d0657600080fd5b84359350602085013567ffffffffffffffff80821115610d2557600080fd5b610d3188838901610bb0565b94506040870135915080821115610d4757600080fd5b50610d5487828801610bb0565b949793965093946060013593505050565b600060208284031215610d7757600080fd5b610d8082610caa565b9392505050565b6020808252825182820181905260009190848201906040850190845b81811015610dbf57835183529284019291840191600101610da3565b50909695505050505050565b6020808252601a908201527f54686973206c697374696e6720646f65736e2774206578697374000000000000604082015260600190565b600181811c90821680610e1657607f821691505b602082108103610e3657634e487b7160e01b600052602260045260246000fd5b50919050565b600060018201610e5c57634e487b7160e01b600052601160045260246000fd5b5060010190565b601f821115610ead57600081815260208120601f850160051c81016020861015610e8a5750805b601f850160051c820191505b81811015610ea957828155600101610e96565b5050505b505050565b815167ffffffffffffffff811115610ecc57610ecc610b9a565b610ee081610eda8454610e02565b84610e63565b602080601f831160018114610f155760008415610efd5750858301515b600019600386901b1c1916600185901b178555610ea9565b600085815260208120601f198616915b82811015610f4457888601518255948401946001909101908401610f25565b5085821015610f625787850151600019600388901b60f8161c191681555b5050505050600190811b01905550565b604081526000610f856040830185610afd565b9050826020830152939250505056fea2646970667358221220aacb4f0e5411ccf85ac7005d98e045e634cc96c1fb21e5f5d6fc71f8db31c93a64736f6c63430008130033",
  "immutableReferences": {},
  "source": "// declaring version of solidity\npragma solidity ^0.8.19;\n\n// listing function for the dapp\ncontract Listings {\n\n    // coutner to ID each listing\n    uint256 public listingCounter = 0;\n\n    // listing structure \n    struct Listing {\n        uint256 id;              // unique ID for this listing\n        address host;            // owner/host of the property\n        string name;             // name of the listing\n        string location;         // location\n        uint256 pricePerNight;   // price per wei\n        bool isActive;           // check availability \n    }\n\n    /* \n     * store listings\n     * Example: Listings[1] will give info such as id, host, name, etc. of that listing\n    */\n    mapping(uint256 => Listing) public listings;\n\n    /*\n     * so there are listings and the host of the listings. It will keep track of what listings the hosts has\n     * Example: If you own listings 1, 3, 5, this stores [1, 3, 5]\n    */\n    mapping(address => uint256[]) public hostListings;\n\n    /* \n     * These are events which are like notifications. The blockchain will broadcast when something important happens\n     * Like when a listing is created, updated, or deactivated. \n     * Good for frontend (web3.js/react) to listen to these events \n    */\n    event ListingCreated(uint256 indexed listingId, address indexed host, string name, uint256 pricePerNight);\n    event ListingUpdated(uint256 indexed listingId, string name, uint256 pricePerNight);\n    event ListingDeactivated(uint256 indexed listingId);\n\n    /* \n     * Modifier to make sure only the host can mess with their own listing\n     * Security stuff\n     * msg.sender - for whoever calls the function (from their wallet address)\n     * checks if the person calling the function is the host\n    */\n    modifier onlyHost(uint256 _listingId) {\n        require(listings[_listingId].host == msg.sender, \"You are not host of the listing\");\n        _;\n    }\n\n    /*\n     * Modifier to check if a listing actually exists\n     * checking if the listing is valid, so a listing ID can't be less than 0 (it starts at 1)\n     * can't access listing that doesn't exist, so can't use listing[100] if their is only 10\n    */\n    modifier listingExists(uint256 _listingId) {\n        require(_listingId > 0 && _listingId <= listingCounter, \"This listing doesn't exist\");\n        _;\n    }\n\n    /* \n     * the main funciton to create a listing \n    */\n    function createListing(\n        string memory _name,\n        string memory _location,\n        uint256 _pricePerNight\n    ) public returns (uint256) {\n        // Make sure the listing is filled with the mandatory stuff\n        require(bytes(_name).length > 0, \"Listing needs a name\");\n        require(bytes(_location).length > 0, \"Listing needs a location\");\n        require(_pricePerNight > 0, \"Price must be greater than 0\");\n\n        // increment counter for new ID for listing\n        listingCounter++;\n\n        // creates the listing with the information\n        listings[listingCounter] = Listing({\n            id: listingCounter,\n            host: msg.sender,\n            name: _name,\n            location: _location,\n            pricePerNight: _pricePerNight,\n            isActive: true\n        });\n\n        // this will add the listing to host's list of listings (so a host can have more than one listing)\n        hostListings[msg.sender].push(listingCounter);\n\n        // notify/broadcast that a listing has been created (for frontend)\n        emit ListingCreated(listingCounter, msg.sender, _name, _pricePerNight);\n\n        return listingCounter;\n    }\n\n    // update a listing (where only the host that created it can edit)\n    function updateListing(\n        uint256 _listingId,\n        string memory _name,\n        string memory _location,\n        uint256 _pricePerNight\n    ) public listingExists(_listingId) onlyHost(_listingId) {\n        require(listings[_listingId].isActive, \"Can't update a deactivated listing\");\n        require(bytes(_name).length > 0, \"Name can't be empty\");\n        require(_pricePerNight > 0, \"Price must be greater than 0\");\n\n        // update the information that the host adjusted\n        // storage means getting a reference to the actual listing stored on the blockchain\n        Listing storage listing = listings[_listingId];\n        listing.name = _name;\n        listing.location = _location;\n        listing.pricePerNight = _pricePerNight;\n\n        emit ListingUpdated(_listingId, _name, _pricePerNight);\n    }\n\n    /*\n     * deactivate the listing (a soft delete) so it doesn't fully erase the data from the blockchian, only deactivate\n     * soft delete cus blockchain data is permanent, so it can't be truly deleted\n     * keeps history just in case\n     * can be reactivated if needed\n    */\n    function deactivateListing(uint256 _listingId)\n        public\n        listingExists(_listingId)\n        onlyHost(_listingId)\n    {\n        require(listings[_listingId].isActive, \"Listing is already deactivated\");\n\n        listings[_listingId].isActive = false;\n\n        emit ListingDeactivated(_listingId);\n    }\n\n    /*\n     * get the information/details about a listing\n     * doesn't change information (only reading) so it doesn't cost gas\n    */\n    function getListing(uint256 _listingId)\n        public\n        view\n        listingExists(_listingId)\n        returns (\n            uint256 id,\n            address host,\n            string memory name,\n            string memory location,\n            uint256 pricePerNight,\n            bool isActive\n        )\n    {\n        // \"memory\" so temporary copy, just reading not changing\n        Listing memory listing = listings[_listingId];\n        return (\n            listing.id,\n            listing.host,\n            listing.name,\n            listing.location,\n            listing.pricePerNight,\n            listing.isActive\n        );\n    }\n\n    // get all listings from a host\n    function getHostListings(address _host) public view returns (uint256[] memory) {\n        return hostListings[_host];\n    }\n\n    // check if a listing is available\n    function isListingActive(uint256 _listingId) public view returns (bool) {\n        return listings[_listingId].isActive;\n    }\n}\n",
  "sourcePath": "/home/hyemdanu/Desktop/airbnb-dapp/contracts/Listings.sol",
  "compiler": {
    "name": "solc",
    "version": "0.8.19+commit.7dd6d404.Emscripten.clang"
  },
  "schemaVersion": "3.4.16",
  "updatedAt": "2025-11-28T09:48:30.895Z",
  "networkType": "ethereum",
  "devdoc": {
    "kind": "dev",
    "methods": {},
    "version": 1
  },
  "userdoc": {
    "kind": "user",
    "methods": {},
    "version": 1
  }
}