{
  "contractName": "Reviews",
  "abi": [
    {
      "inputs": [
        {
          "internalType": "address",
          "name": "_bookingContractAddress",
          "type": "address"
        }
      ],
      "stateMutability": "nonpayable",
      "type": "constructor"
    },
    {
      "anonymous": false,
      "inputs": [
        {
          "indexed": true,
          "internalType": "uint256",
          "name": "reviewId",
          "type": "uint256"
        },
        {
          "indexed": true,
          "internalType": "uint256",
          "name": "listingId",
          "type": "uint256"
        },
        {
          "indexed": true,
          "internalType": "uint256",
          "name": "bookingId",
          "type": "uint256"
        },
        {
          "indexed": false,
          "internalType": "address",
          "name": "reviewer",
          "type": "address"
        },
        {
          "indexed": false,
          "internalType": "uint256",
          "name": "rating",
          "type": "uint256"
        }
      ],
      "name": "ReviewCreated",
      "type": "event"
    },
    {
      "anonymous": false,
      "inputs": [
        {
          "indexed": true,
          "internalType": "uint256",
          "name": "reviewId",
          "type": "uint256"
        }
      ],
      "name": "ReviewDeactivated",
      "type": "event"
    },
    {
      "anonymous": false,
      "inputs": [
        {
          "indexed": true,
          "internalType": "uint256",
          "name": "reviewId",
          "type": "uint256"
        },
        {
          "indexed": false,
          "internalType": "uint256",
          "name": "newRating",
          "type": "uint256"
        },
        {
          "indexed": false,
          "internalType": "string",
          "name": "newComment",
          "type": "string"
        }
      ],
      "name": "ReviewUpdated",
      "type": "event"
    },
    {
      "inputs": [],
      "name": "bookingContract",
      "outputs": [
        {
          "internalType": "contract BookingEscrow",
          "name": "",
          "type": "address"
        }
      ],
      "stateMutability": "view",
      "type": "function",
      "constant": true
    },
    {
      "inputs": [
        {
          "internalType": "uint256",
          "name": "",
          "type": "uint256"
        }
      ],
      "name": "bookingHasReview",
      "outputs": [
        {
          "internalType": "bool",
          "name": "",
          "type": "bool"
        }
      ],
      "stateMutability": "view",
      "type": "function",
      "constant": true
    },
    {
      "inputs": [
        {
          "internalType": "uint256",
          "name": "",
          "type": "uint256"
        },
        {
          "internalType": "uint256",
          "name": "",
          "type": "uint256"
        }
      ],
      "name": "listingReviews",
      "outputs": [
        {
          "internalType": "uint256",
          "name": "",
          "type": "uint256"
        }
      ],
      "stateMutability": "view",
      "type": "function",
      "constant": true
    },
    {
      "inputs": [],
      "name": "reviewCounter",
      "outputs": [
        {
          "internalType": "uint256",
          "name": "",
          "type": "uint256"
        }
      ],
      "stateMutability": "view",
      "type": "function",
      "constant": true
    },
    {
      "inputs": [
        {
          "internalType": "address",
          "name": "",
          "type": "address"
        },
        {
          "internalType": "uint256",
          "name": "",
          "type": "uint256"
        }
      ],
      "name": "reviewerReviews",
      "outputs": [
        {
          "internalType": "uint256",
          "name": "",
          "type": "uint256"
        }
      ],
      "stateMutability": "view",
      "type": "function",
      "constant": true
    },
    {
      "inputs": [
        {
          "internalType": "uint256",
          "name": "",
          "type": "uint256"
        }
      ],
      "name": "reviews",
      "outputs": [
        {
          "internalType": "uint256",
          "name": "id",
          "type": "uint256"
        },
        {
          "internalType": "uint256",
          "name": "bookingId",
          "type": "uint256"
        },
        {
          "internalType": "uint256",
          "name": "listingId",
          "type": "uint256"
        },
        {
          "internalType": "address",
          "name": "reviewer",
          "type": "address"
        },
        {
          "internalType": "address",
          "name": "host",
          "type": "address"
        },
        {
          "internalType": "uint256",
          "name": "rating",
          "type": "uint256"
        },
        {
          "internalType": "string",
          "name": "comment",
          "type": "string"
        },
        {
          "internalType": "uint256",
          "name": "createdAt",
          "type": "uint256"
        },
        {
          "internalType": "bool",
          "name": "isActive",
          "type": "bool"
        }
      ],
      "stateMutability": "view",
      "type": "function",
      "constant": true
    },
    {
      "inputs": [
        {
          "internalType": "uint256",
          "name": "_bookingId",
          "type": "uint256"
        },
        {
          "internalType": "uint256",
          "name": "_rating",
          "type": "uint256"
        },
        {
          "internalType": "string",
          "name": "_comment",
          "type": "string"
        }
      ],
      "name": "createReview",
      "outputs": [
        {
          "internalType": "uint256",
          "name": "",
          "type": "uint256"
        }
      ],
      "stateMutability": "nonpayable",
      "type": "function"
    },
    {
      "inputs": [
        {
          "internalType": "uint256",
          "name": "_reviewId",
          "type": "uint256"
        },
        {
          "internalType": "uint256",
          "name": "_newRating",
          "type": "uint256"
        },
        {
          "internalType": "string",
          "name": "_newComment",
          "type": "string"
        }
      ],
      "name": "updateReview",
      "outputs": [],
      "stateMutability": "nonpayable",
      "type": "function"
    },
    {
      "inputs": [
        {
          "internalType": "uint256",
          "name": "_reviewId",
          "type": "uint256"
        }
      ],
      "name": "deactivateReview",
      "outputs": [],
      "stateMutability": "nonpayable",
      "type": "function"
    },
    {
      "inputs": [
        {
          "internalType": "uint256",
          "name": "_listingId",
          "type": "uint256"
        }
      ],
      "name": "getListingReviews",
      "outputs": [
        {
          "internalType": "uint256[]",
          "name": "",
          "type": "uint256[]"
        }
      ],
      "stateMutability": "view",
      "type": "function",
      "constant": true
    },
    {
      "inputs": [
        {
          "internalType": "address",
          "name": "_reviewer",
          "type": "address"
        }
      ],
      "name": "getReviewerReviews",
      "outputs": [
        {
          "internalType": "uint256[]",
          "name": "",
          "type": "uint256[]"
        }
      ],
      "stateMutability": "view",
      "type": "function",
      "constant": true
    },
    {
      "inputs": [
        {
          "internalType": "uint256",
          "name": "_reviewId",
          "type": "uint256"
        }
      ],
      "name": "getReview",
      "outputs": [
        {
          "internalType": "uint256",
          "name": "id",
          "type": "uint256"
        },
        {
          "internalType": "uint256",
          "name": "listingId",
          "type": "uint256"
        },
        {
          "internalType": "address",
          "name": "reviewer",
          "type": "address"
        },
        {
          "internalType": "uint256",
          "name": "rating",
          "type": "uint256"
        },
        {
          "internalType": "string",
          "name": "comment",
          "type": "string"
        },
        {
          "internalType": "uint256",
          "name": "createdAt",
          "type": "uint256"
        },
        {
          "internalType": "bool",
          "name": "isActive",
          "type": "bool"
        }
      ],
      "stateMutability": "view",
      "type": "function",
      "constant": true
    },
    {
      "inputs": [
        {
          "internalType": "uint256",
          "name": "_listingId",
          "type": "uint256"
        }
      ],
      "name": "getListingAverageRating",
      "outputs": [
        {
          "internalType": "uint256",
          "name": "",
          "type": "uint256"
        }
      ],
      "stateMutability": "view",
      "type": "function",
      "constant": true
    },
    {
      "inputs": [
        {
          "internalType": "uint256",
          "name": "_listingId",
          "type": "uint256"
        }
      ],
      "name": "getListingReviewCount",
      "outputs": [
        {
          "internalType": "uint256",
          "name": "",
          "type": "uint256"
        }
      ],
      "stateMutability": "view",
      "type": "function",
      "constant": true
    },
    {
      "inputs": [
        {
          "internalType": "uint256",
          "name": "_bookingId",
          "type": "uint256"
        }
      ],
      "name": "hasBeenReviewed",
      "outputs": [
        {
          "internalType": "bool",
          "name": "",
          "type": "bool"
        }
      ],
      "stateMutability": "view",
      "type": "function",
      "constant": true
    }
  ],
  "bytecode": "0x6080604052600060015534801561001557600080fd5b5060405161172738038061172783398101604081905261003491610059565b600080546001600160a01b0319166001600160a01b0392909216919091179055610089565b60006020828403121561006b57600080fd5b81516001600160a01b038116811461008257600080fd5b9392505050565b61168f806100986000396000f3fe608060405234801561001057600080fd5b50600436106100f55760003560e01c8063990581b611610097578063e168b3a811610066578063e168b3a814610230578063e83ddcea14610239578063eb55abdf14610261578063fa4238c31461027457600080fd5b8063990581b6146101d1578063a76cce4b146101f7578063c910bd5c1461020a578063c978f65e1461021d57600080fd5b8063175a3b41116100d3578063175a3b41146101665780632fd8030b1461017b57806332d6418d1461018e5780635107115b146101ae57600080fd5b80630592cdde146100fa5780630b1ad4611461012057806316d81b3814610153575b600080fd5b61010d6101083660046110d5565b61029f565b6040519081526020015b60405180910390f35b61014361012e3660046110d5565b60009081526005602052604090205460ff1690565b6040519015158152602001610117565b61010d610161366004611104565b61036a565b610179610174366004611104565b6107d7565b005b6101796101893660046110d5565b6109dd565b6101a161019c3660046111e0565b610b29565b6040516101179190611204565b6101436101bc3660046110d5565b60056020526000908152604090205460ff1681565b6101e46101df3660046110d5565b610b95565b604051610117979695949392919061128e565b61010d6102053660046110d5565b610d20565b6101a16102183660046110d5565b610f43565b61010d61022b3660046112dc565b610fa3565b61010d60015481565b61024c6102473660046110d5565b610fd4565b604051610117999897969594939291906112fe565b61010d61026f366004611365565b6110b9565b600054610287906001600160a01b031681565b6040516001600160a01b039091168152602001610117565b6000818152600360209081526040808320805482518185028101850190935280835284938301828280156102f257602002820191906000526020600020905b8154815260200190600101908083116102de575b505050505090506000805b8251811015610362576002600084838151811061031c5761031c611391565b60209081029190910181015182528101919091526040016000206008015460ff1615610350578161034c816113bd565b9250505b8061035a816113bd565b9150506102fd565b509392505050565b6000805460405163352e420d60e11b81526004810186905282918291829182916001600160a01b0390911690636a5c841a9060240161010060405180830381865afa1580156103bd573d6000803e3d6000fd5b505050506040513d601f19601f820116820180604052508101906103e191906113d6565b9750505050945094509450506002600481111561040057610400611459565b81600481111561041257610412611459565b1461046f5760405162461bcd60e51b815260206004820152602260248201527f43616e206f6e6c792072657669657720636f6d706c6574656420626f6f6b696e604482015261677360f01b60648201526084015b60405180910390fd5b6001600160a01b03831633146104d65760405162461bcd60e51b815260206004820152602660248201527f596f7520776572656e27742074686520677565737420666f72207468697320626044820152656f6f6b696e6760d01b6064820152608401610466565b60008881526005602052604090205460ff161561053f5760405162461bcd60e51b815260206004820152602160248201527f596f7520616c7265616479207265766965776564207468697320626f6f6b696e6044820152606760f81b6064820152608401610466565b60018710158015610551575060058711155b6105a95760405162461bcd60e51b8152602060048201526024808201527f526174696e67206d757374206265206265747765656e203120616e64203520736044820152637461727360e01b6064820152608401610466565b60008651116105f35760405162461bcd60e51b8152602060048201526016602482015275141b19585cd9481ddc9a5d1948184818dbdb5b595b9d60521b6044820152606401610466565b60018054906000610603836113bd565b91905055506040518061012001604052806001548152602001898152602001858152602001336001600160a01b03168152602001836001600160a01b031681526020018881526020018781526020014281526020016001151581525060026000600154815260200190815260200160002060008201518160000155602082015181600101556040820151816002015560608201518160030160006101000a8154816001600160a01b0302191690836001600160a01b0316021790555060808201518160040160006101000a8154816001600160a01b0302191690836001600160a01b0316021790555060a0820151816005015560c082015181600601908161070b91906114f8565b5060e08201516007820155610100909101516008909101805491151560ff1992831617905560008581526003602090815260408083206001805482548083018455928652848620909201919091553380855260048452828520825481548085018355918752858720909101558d8552600584529382902080549095168117909455925483519283529082018a90528a9287927f2fade753d2740568bcf8fdc2e8320ae5a20aa6afbc8db69857ad353cae8a863e910160405180910390a450506001549695505050505050565b826000811180156107ea57506001548111155b6108065760405162461bcd60e51b8152600401610466906115b8565b60008481526002602052604090206003015484906001600160a01b031633146108715760405162461bcd60e51b815260206004820152601c60248201527f596f75206469646e2774207772697465207468697320726576696577000000006044820152606401610466565b6000858152600260205260409020600881015460ff166108dd5760405162461bcd60e51b815260206004820152602160248201527f43616e27742075706461746520612064656163746976617465642072657669656044820152607760f81b6064820152608401610466565b600185101580156108ef575060058511155b61093b5760405162461bcd60e51b815260206004820152601860248201527f526174696e67206d75737420626520312d3520737461727300000000000000006044820152606401610466565b60008451116109855760405162461bcd60e51b8152602060048201526016602482015275436f6d6d656e742063616e277420626520656d70747960501b6044820152606401610466565b600581018590556006810161099a85826114f8565b50857fe6bca0b1ae68aa3c3101325a30603b90848b1cb037d020c24548cc433db5e66186866040516109cd9291906115e6565b60405180910390a2505050505050565b806000811180156109f057506001548111155b610a0c5760405162461bcd60e51b8152600401610466906115b8565b600082815260026020526040902060038101546001600160a01b0316331480610a41575060048101546001600160a01b031633145b610a995760405162461bcd60e51b8152602060048201526024808201527f4f6e6c79207265766965776572206f7220686f73742063616e206465616374696044820152637661746560e01b6064820152608401610466565b600881015460ff16610aed5760405162461bcd60e51b815260206004820152601d60248201527f52657669657720697320616c72656164792064656163746976617465640000006044820152606401610466565b60088101805460ff1916905560405183907ff642f35a08f7b48b28e1f9a5cd25f5c14d32cfdfbb0d1e9b5c0a3ae525d0ee1e90600090a2505050565b6001600160a01b038116600090815260046020908152604091829020805483518184028101840190945280845260609392830182828015610b8957602002820191906000526020600020905b815481526020019060010190808311610b75575b50505050509050919050565b600080600080606060008087600081118015610bb357506001548111155b610bcf5760405162461bcd60e51b8152600401610466906115b8565b600089815260026020818152604080842081516101208101835281548152600182015493810193909352928301549082015260038201546001600160a01b0390811660608301526004830154166080820152600582015460a082015260068201805491929160c084019190610c439061146f565b80601f0160208091040260200160405190810160405280929190818152602001828054610c6f9061146f565b8015610cbc5780601f10610c9157610100808354040283529160200191610cbc565b820191906000526020600020905b815481529060010190602001808311610c9f57829003601f168201915b50505091835250506007820154602082015260089091015460ff161515604091820152815190820151606083015160a084015160c085015160e08601516101009690960151949e50929c50909a509850965090945092505050919395979092949650565b600081815260036020908152604080832080548251818502810185019093528083528493830182828015610d7357602002820191906000526020600020905b815481526020019060010190808311610d5f575b505050505090508051600003610d8c5750600092915050565b60008060005b8351811015610f1057600060026000868481518110610db357610db3611391565b60209081029190910181015182528181019290925260409081016000208151610120810183528154815260018201549381019390935260028101549183019190915260038101546001600160a01b0390811660608401526004820154166080830152600581015460a083015260068101805460c084019190610e349061146f565b80601f0160208091040260200160405190810160405280929190818152602001828054610e609061146f565b8015610ead5780601f10610e8257610100808354040283529160200191610ead565b820191906000526020600020905b815481529060010190602001808311610e9057829003601f168201915b50505091835250506007820154602082015260089091015460ff16151560409091015261010081015190915015610efd5760a0810151610eed9085611607565b935082610ef9816113bd565b9350505b5080610f08816113bd565b915050610d92565b5080600003610f2457506000949350505050565b80610f30836064611620565b610f3a9190611637565b95945050505050565b600081815260036020908152604091829020805483518184028101840190945280845260609392830182828015610b895760200282019190600052602060002090815481526020019060010190808311610b755750505050509050919050565b60036020528160005260406000208181548110610fbf57600080fd5b90600052602060002001600091509150505481565b6002602081905260009182526040909120805460018201549282015460038301546004840154600585015460068601805495979694956001600160a01b0394851695949093169391926110269061146f565b80601f01602080910402602001604051908101604052809291908181526020018280546110529061146f565b801561109f5780601f106110745761010080835404028352916020019161109f565b820191906000526020600020905b81548152906001019060200180831161108257829003601f168201915b50505050600783015460089093015491929160ff16905089565b60046020528160005260406000208181548110610fbf57600080fd5b6000602082840312156110e757600080fd5b5035919050565b634e487b7160e01b600052604160045260246000fd5b60008060006060848603121561111957600080fd5b8335925060208401359150604084013567ffffffffffffffff8082111561113f57600080fd5b818601915086601f83011261115357600080fd5b813581811115611165576111656110ee565b604051601f8201601f19908116603f0116810190838211818310171561118d5761118d6110ee565b816040528281528960208487010111156111a657600080fd5b8260208601602083013760006020848301015280955050505050509250925092565b6001600160a01b03811681146111dd57600080fd5b50565b6000602082840312156111f257600080fd5b81356111fd816111c8565b9392505050565b6020808252825182820181905260009190848201906040850190845b8181101561123c57835183529284019291840191600101611220565b50909695505050505050565b6000815180845260005b8181101561126e57602081850181015186830182015201611252565b506000602082860101526020601f19601f83011685010191505092915050565b87815286602082015260018060a01b038616604082015284606082015260e0608082015260006112c160e0830186611248565b60a08301949094525090151560c09091015295945050505050565b600080604083850312156112ef57600080fd5b50508035926020909101359150565b89815260208101899052604081018890526001600160a01b0387811660608301528616608082015260a0810185905261012060c0820181905260009061134683820187611248565b60e0840195909552505090151561010090910152979650505050505050565b6000806040838503121561137857600080fd5b8235611383816111c8565b946020939093013593505050565b634e487b7160e01b600052603260045260246000fd5b634e487b7160e01b600052601160045260246000fd5b6000600182016113cf576113cf6113a7565b5060010190565b600080600080600080600080610100898b0312156113f357600080fd5b8851975060208901519650604089015161140c816111c8565b60608a015190965061141d816111c8565b809550506080890151935060a0890151925060c0890151915060e08901516005811061144857600080fd5b809150509295985092959890939650565b634e487b7160e01b600052602160045260246000fd5b600181811c9082168061148357607f821691505b6020821081036114a357634e487b7160e01b600052602260045260246000fd5b50919050565b601f8211156114f357600081815260208120601f850160051c810160208610156114d05750805b601f850160051c820191505b818110156114ef578281556001016114dc565b5050505b505050565b815167ffffffffffffffff811115611512576115126110ee565b61152681611520845461146f565b846114a9565b602080601f83116001811461155b57600084156115435750858301515b600019600386901b1c1916600185901b1785556114ef565b600085815260208120601f198616915b8281101561158a5788860151825594840194600190910190840161156b565b50858210156115a85787850151600019600388901b60f8161c191681555b5050505050600190811b01905550565b60208082526014908201527314995d9a595dc8191bd95cdb89dd08195e1a5cdd60621b604082015260600190565b8281526040602082015260006115ff6040830184611248565b949350505050565b8082018082111561161a5761161a6113a7565b92915050565b808202811582820484141761161a5761161a6113a7565b60008261165457634e487b7160e01b600052601260045260246000fd5b50049056fea26469706673582212208883aa02fb661f130a7ac23e86677b65d7a3fb7726cf4e3de84f8854a9b5f27364736f6c63430008130033",
  "immutableReferences": {},
  "source": "// SPDX-License-Identifier: MIT\npragma solidity ^0.8.19;\n\nimport \"./BookingEscrow.sol\";\n\n/*\n * Reviews and Ratings Contract\n * Guests can leave reviews after completing a stay\n * This helps build trust and lets future guests know what to expect\n * Only verified guests (who actually stayed) can leave reviews - prevents fake reviews\n*/\ncontract Reviews {\n\n    // Reference to BookingEscrow so we can verify someone actually stayed there\n    BookingEscrow public bookingContract;\n\n    // Counter for review IDs\n    uint256 public reviewCounter = 0;\n\n    // Review structure - all the info about one review\n    struct Review {\n        uint256 id;              // unique review ID\n        uint256 bookingId;       // which booking this review is for\n        uint256 listingId;       // which property was reviewed\n        address reviewer;        // who wrote the review (the guest)\n        address host;            // who owns the property\n        uint256 rating;          // 1-5 stars\n        string comment;          // written review text\n        uint256 createdAt;       // when the review was posted\n        bool isActive;           // can be deactivated if inappropriate\n    }\n\n    /*\n     * Storage mappings to organize reviews\n    */\n    mapping(uint256 => Review) public reviews; // reviewId -> Review\n\n    // All reviews for a specific listing\n    // Example: if you're looking at a property, show all its reviews\n    mapping(uint256 => uint256[]) public listingReviews;\n\n    // All reviews written by a specific user\n    // Example: your review history\n    mapping(address => uint256[]) public reviewerReviews;\n\n    // Track if a booking already has a review (one review per booking)\n    // Prevents someone from leaving multiple reviews for the same stay\n    mapping(uint256 => bool) public bookingHasReview;\n\n    /*\n     * Events for the frontend to listen to\n    */\n    event ReviewCreated(\n        uint256 indexed reviewId,\n        uint256 indexed listingId,\n        uint256 indexed bookingId,\n        address reviewer,\n        uint256 rating\n    );\n\n    event ReviewUpdated(uint256 indexed reviewId, uint256 newRating, string newComment);\n    event ReviewDeactivated(uint256 indexed reviewId);\n\n    /*\n     * Modifiers for security checks\n    */\n    modifier reviewExists(uint256 _reviewId) {\n        require(_reviewId > 0 && _reviewId <= reviewCounter, \"Review doesn't exist\");\n        _;\n    }\n\n    modifier onlyReviewer(uint256 _reviewId) {\n        require(reviews[_reviewId].reviewer == msg.sender, \"You didn't write this review\");\n        _;\n    }\n\n    /*\n     * Constructor - need to know where the BookingEscrow contract is\n     * so we can verify bookings are real\n    */\n    constructor(address _bookingContractAddress) {\n        bookingContract = BookingEscrow(_bookingContractAddress);\n    }\n\n    /*\n     * Create a new review\n     * Only guests who completed a stay can leave a review\n     *\n     * Process:\n     * 1. Verify the booking exists and is completed\n     * 2. Make sure the person leaving review is the guest from that booking\n     * 3. Check they haven't already reviewed this booking\n     * 4. Validate rating (must be 1-5 stars)\n     * 5. Create and store the review\n    */\n    function createReview(\n        uint256 _bookingId,\n        uint256 _rating,\n        string memory _comment\n    ) public returns (uint256) {\n        // Get booking details from the BookingEscrow contract\n        (\n            ,                    // id\n            uint256 listingId,\n            address guest,\n            address host,\n            ,                    // checkInDate\n            ,                    // checkOutDate\n            ,                    // totalPrice\n            BookingEscrow.BookingStatus status\n        ) = bookingContract.getBooking(_bookingId);\n\n        // Make sure booking is completed (can't review if you haven't stayed yet)\n        require(status == BookingEscrow.BookingStatus.Completed, \"Can only review completed bookings\");\n\n        // Make sure the person leaving review is actually the guest who stayed there\n        require(guest == msg.sender, \"You weren't the guest for this booking\");\n\n        // Prevent duplicate reviews (one review per booking)\n        require(!bookingHasReview[_bookingId], \"You already reviewed this booking\");\n\n        // Rating must be 1-5 stars (standard rating system)\n        require(_rating >= 1 && _rating <= 5, \"Rating must be between 1 and 5 stars\");\n\n        // Comment should have some content (optional but encouraged)\n        require(bytes(_comment).length > 0, \"Please write a comment\");\n\n        // Create the review\n        reviewCounter++;\n\n        reviews[reviewCounter] = Review({\n            id: reviewCounter,\n            bookingId: _bookingId,\n            listingId: listingId,\n            reviewer: msg.sender,\n            host: host,\n            rating: _rating,\n            comment: _comment,\n            createdAt: block.timestamp,\n            isActive: true\n        });\n\n        // Add to tracking lists\n        listingReviews[listingId].push(reviewCounter);\n        reviewerReviews[msg.sender].push(reviewCounter);\n\n        // Mark this booking as reviewed\n        bookingHasReview[_bookingId] = true;\n\n        // Notify frontend\n        emit ReviewCreated(reviewCounter, listingId, _bookingId, msg.sender, _rating);\n\n        return reviewCounter;\n    }\n\n    /*\n     * Update an existing review\n     * Only the person who wrote it can edit it\n     * Can't edit if review has been deactivated\n    */\n    function updateReview(\n        uint256 _reviewId,\n        uint256 _newRating,\n        string memory _newComment\n    ) public reviewExists(_reviewId) onlyReviewer(_reviewId) {\n        Review storage review = reviews[_reviewId];\n\n        require(review.isActive, \"Can't update a deactivated review\");\n        require(_newRating >= 1 && _newRating <= 5, \"Rating must be 1-5 stars\");\n        require(bytes(_newComment).length > 0, \"Comment can't be empty\");\n\n        // Update the review\n        review.rating = _newRating;\n        review.comment = _newComment;\n\n        emit ReviewUpdated(_reviewId, _newRating, _newComment);\n    }\n\n    /*\n     * Deactivate a review (soft delete)\n     * Either the reviewer or host can request this\n     * Useful for removing inappropriate content\n     * Doesn't delete from blockchain (blockchain data is permanent) but marks as inactive\n    */\n    function deactivateReview(uint256 _reviewId)\n        public\n        reviewExists(_reviewId)\n    {\n        Review storage review = reviews[_reviewId];\n\n        // Only the reviewer or the host can deactivate\n        require(\n            msg.sender == review.reviewer || msg.sender == review.host,\n            \"Only reviewer or host can deactivate\"\n        );\n\n        require(review.isActive, \"Review is already deactivated\");\n\n        review.isActive = false;\n\n        emit ReviewDeactivated(_reviewId);\n    }\n\n    /*\n     * Get all reviews for a specific listing\n     * Used to show reviews on a property page\n    */\n    function getListingReviews(uint256 _listingId) public view returns (uint256[] memory) {\n        return listingReviews[_listingId];\n    }\n\n    /*\n     * Get all reviews written by a specific user\n     * Shows your review history\n    */\n    function getReviewerReviews(address _reviewer) public view returns (uint256[] memory) {\n        return reviewerReviews[_reviewer];\n    }\n\n    /*\n     * Get details of a specific review\n     * View function - doesn't cost gas\n    */\n    function getReview(uint256 _reviewId)\n        public\n        view\n        reviewExists(_reviewId)\n        returns (\n            uint256 id,\n            uint256 listingId,\n            address reviewer,\n            uint256 rating,\n            string memory comment,\n            uint256 createdAt,\n            bool isActive\n        )\n    {\n        Review memory review = reviews[_reviewId];\n        return (\n            review.id,\n            review.listingId,\n            review.reviewer,\n            review.rating,\n            review.comment,\n            review.createdAt,\n            review.isActive\n        );\n    }\n\n    /*\n     * Calculate average rating for a listing\n     * Goes through all active reviews and calculates the mean\n     * Returns rating * 100 (so 4.75 stars = 475) to avoid decimals in Solidity\n    */\n    function getListingAverageRating(uint256 _listingId) public view returns (uint256) {\n        uint256[] memory reviewIds = listingReviews[_listingId];\n\n        if (reviewIds.length == 0) {\n            return 0; // no reviews yet\n        }\n\n        uint256 totalRating = 0;\n        uint256 activeCount = 0;\n\n        // Sum up all active reviews\n        for (uint256 i = 0; i < reviewIds.length; i++) {\n            Review memory review = reviews[reviewIds[i]];\n            if (review.isActive) {\n                totalRating += review.rating;\n                activeCount++;\n            }\n        }\n\n        if (activeCount == 0) {\n            return 0; // no active reviews\n        }\n\n        // Calculate average and multiply by 100 to handle decimals\n        // Example: total = 19, count = 4, avg = 4.75\n        // We return 475 (which frontend can display as 4.75)\n        return (totalRating * 100) / activeCount;\n    }\n\n    /*\n     * Get total number of active reviews for a listing\n     * Useful for showing \"Based on 42 reviews\"\n    */\n    function getListingReviewCount(uint256 _listingId) public view returns (uint256) {\n        uint256[] memory reviewIds = listingReviews[_listingId];\n        uint256 activeCount = 0;\n\n        for (uint256 i = 0; i < reviewIds.length; i++) {\n            if (reviews[reviewIds[i]].isActive) {\n                activeCount++;\n            }\n        }\n\n        return activeCount;\n    }\n\n    /*\n     * Check if a booking has already been reviewed\n     * Prevents duplicate reviews\n    */\n    function hasBeenReviewed(uint256 _bookingId) public view returns (bool) {\n        return bookingHasReview[_bookingId];\n    }\n}\n",
  "sourcePath": "/home/hyemdanu/Desktop/airbnb-dapp/contracts/Reviews.sol",
  "compiler": {
    "name": "solc",
    "version": "0.8.19+commit.7dd6d404.Emscripten.clang"
  },
  "schemaVersion": "3.4.16",
  "updatedAt": "2025-11-28T09:48:30.909Z",
  "networkType": "ethereum",
  "devdoc": {
    "kind": "dev",
    "methods": {},
    "version": 1
  },
  "userdoc": {
    "kind": "user",
    "methods": {},
    "version": 1
  }
}